{
    "abi": [
        {
            "inputs": [],
            "stateMutability": "nonpayable",
            "type": "constructor"
        },
        {
            "inputs": [],
            "name": "ExpiredOffer",
            "type": "error"
        },
        {
            "inputs": [],
            "name": "InvalidOfferee",
            "type": "error"
        },
        {
            "inputs": [],
            "name": "InvalidOfferor",
            "type": "error"
        },
        {
            "inputs": [],
            "name": "InvalidType",
            "type": "error"
        },
        {
            "inputs": [],
            "name": "UsedOffer",
            "type": "error"
        },
        {
            "inputs": [],
            "name": "DOMAIN_SEPARATOR",
            "outputs": [
                {
                    "internalType": "bytes32",
                    "name": "",
                    "type": "bytes32"
                }
            ],
            "stateMutability": "view",
            "type": "function"
        },
        {
            "inputs": [],
            "name": "NAME",
            "outputs": [
                {
                    "internalType": "string",
                    "name": "",
                    "type": "string"
                }
            ],
            "stateMutability": "view",
            "type": "function"
        },
        {
            "inputs": [],
            "name": "VERSION",
            "outputs": [
                {
                    "internalType": "string",
                    "name": "",
                    "type": "string"
                }
            ],
            "stateMutability": "view",
            "type": "function"
        },
        {
            "inputs": [
                {
                    "components": [
                        {
                            "components": [
                                {
                                    "internalType": "address",
                                    "name": "token",
                                    "type": "address"
                                },
                                {
                                    "internalType": "enum ItemType",
                                    "name": "itemType",
                                    "type": "uint8"
                                },
                                {
                                    "internalType": "uint256",
                                    "name": "value",
                                    "type": "uint256"
                                }
                            ],
                            "internalType": "struct Item[]",
                            "name": "toSend",
                            "type": "tuple[]"
                        },
                        {
                            "components": [
                                {
                                    "internalType": "address",
                                    "name": "token",
                                    "type": "address"
                                },
                                {
                                    "internalType": "enum ItemType",
                                    "name": "itemType",
                                    "type": "uint8"
                                },
                                {
                                    "internalType": "uint256",
                                    "name": "value",
                                    "type": "uint256"
                                }
                            ],
                            "internalType": "struct Item[]",
                            "name": "toReceive",
                            "type": "tuple[]"
                        },
                        {
                            "internalType": "address",
                            "name": "from",
                            "type": "address"
                        },
                        {
                            "internalType": "address",
                            "name": "to",
                            "type": "address"
                        },
                        {
                            "internalType": "uint256",
                            "name": "deadline",
                            "type": "uint256"
                        }
                    ],
                    "internalType": "struct Offer",
                    "name": "offer",
                    "type": "tuple"
                },
                {
                    "internalType": "uint8",
                    "name": "v",
                    "type": "uint8"
                },
                {
                    "internalType": "bytes32",
                    "name": "r",
                    "type": "bytes32"
                },
                {
                    "internalType": "bytes32",
                    "name": "s",
                    "type": "bytes32"
                }
            ],
            "name": "acceptOffer",
            "outputs": [],
            "stateMutability": "nonpayable",
            "type": "function"
        },
        {
            "inputs": [
                {
                    "components": [
                        {
                            "components": [
                                {
                                    "internalType": "address",
                                    "name": "token",
                                    "type": "address"
                                },
                                {
                                    "internalType": "enum ItemType",
                                    "name": "itemType",
                                    "type": "uint8"
                                },
                                {
                                    "internalType": "uint256",
                                    "name": "value",
                                    "type": "uint256"
                                }
                            ],
                            "internalType": "struct Item[]",
                            "name": "toSend",
                            "type": "tuple[]"
                        },
                        {
                            "components": [
                                {
                                    "internalType": "address",
                                    "name": "token",
                                    "type": "address"
                                },
                                {
                                    "internalType": "enum ItemType",
                                    "name": "itemType",
                                    "type": "uint8"
                                },
                                {
                                    "internalType": "uint256",
                                    "name": "value",
                                    "type": "uint256"
                                }
                            ],
                            "internalType": "struct Item[]",
                            "name": "toReceive",
                            "type": "tuple[]"
                        },
                        {
                            "internalType": "address",
                            "name": "from",
                            "type": "address"
                        },
                        {
                            "internalType": "address",
                            "name": "to",
                            "type": "address"
                        },
                        {
                            "internalType": "uint256",
                            "name": "deadline",
                            "type": "uint256"
                        }
                    ],
                    "internalType": "struct Offer",
                    "name": "offer",
                    "type": "tuple"
                }
            ],
            "name": "cancelOffer",
            "outputs": [],
            "stateMutability": "nonpayable",
            "type": "function"
        },
        {
            "inputs": [
                {
                    "internalType": "bytes32",
                    "name": "",
                    "type": "bytes32"
                }
            ],
            "name": "offerUsed",
            "outputs": [
                {
                    "internalType": "bool",
                    "name": "",
                    "type": "bool"
                }
            ],
            "stateMutability": "view",
            "type": "function"
        }
    ],
    "bytecode": {
        "object": "0x60a060405234801561001057600080fd5b50610057604051806040016040528060058152602001642b30b837b960d91b815250604051806040016040528060018152602001603160f81b81525061005f60201b60201c565b6080526100d1565b8151602092830120815191830191909120604080517f8b73c3c69bb8fe3d512ecc4cf759cc79239f7b179b0ffacaa9a75d522b39400f818601528082019390935260608301919091524660808301523060a0808401919091528151808403909101815260c09092019052805191012090565b608051610b446100f260003960008181606c01526103310152610b446000f3fe608060405234801561001057600080fd5b50600436106100625760003560e01c80633644e51514610067578063a3f4df7e146100a1578063a8d392b0146100d2578063aa724a1f14610105578063bdcc3da01461011a578063ffa1ad741461012d575b600080fd5b61008e7f000000000000000000000000000000000000000000000000000000000000000081565b6040519081526020015b60405180910390f35b6100c5604051806040016040528060058152602001642b30b837b960d91b81525081565b6040516100989190610728565b6100f56100e036600461077d565b60006020819052908152604090205460ff1681565b6040519015158152602001610098565b61011861011336600461099b565b61014d565b005b610118610128366004610a00565b61020b565b6100c5604051806040016040528060018152602001603160f81b81525081565b600061015b85858585610271565b6000818152602081905260408120805460ff191660011790559091505b8551518110156101ba576101b28660000151828151811061019b5761019b610a3d565b602002602001015187604001518860600151610419565b600101610178565b5060005b856020015151811015610203576101fb866020015182815181106101e4576101e4610a3d565b602002602001015187606001518860400151610419565b6001016101be565b505050505050565b80604001516001600160a01b0316336001600160a01b03161461024157604051634e1c94fd60e11b815260040160405180910390fd5b600160008061024f8461056c565b81526020810191909152604001600020805460ff191691151591909117905550565b60008061027d8661056c565b60008181526020819052604090205490915060ff16156102b05760405163274dbd8b60e11b815260040160405180910390fd5b85608001514211156102d5576040516303d0974960e21b815260040160405180910390fd5b60608601516001600160a01b0316158015906102fe575060608601516001600160a01b03163314155b1561031c57604051639f98473d60e01b815260040160405180910390fd5b85604001516001600160a01b031660016103917f00000000000000000000000000000000000000000000000000000000000000008460405161190160f01b6020820152602281018390526042810182905260009060620160405160208183030381529060405280519060200120905092915050565b6040805160008152602081018083529290925260ff891690820152606081018790526080810186905260a0016020604051602081039080840390855afa1580156103df573d6000803e3d6000fd5b505050602060405103516001600160a01b03161461041057604051634e1c94fd60e11b815260040160405180910390fd5b95945050505050565b60008360200151600181111561043157610431610a53565b036104bf57825160408085015190516323b872dd60e01b81526001600160a01b038581166004830152848116602483015260448201929092529116906323b872dd906064016020604051808303816000875af1158015610495573d6000803e3d6000fd5b505050506040513d601f19601f820116820180604052508101906104b99190610a69565b50505050565b6001836020015160018111156104d7576104d7610a53565b036105535782516040808501519051632142170760e11b81526001600160a01b038581166004830152848116602483015260448201929092529116906342842e0e90606401600060405180830381600087803b15801561053657600080fd5b505af115801561054a573d6000803e3d6000fd5b50505050505050565b60405163b968846160e01b815260040160405180910390fd5b60007fa5e31af204779b8341ac7fd069a1a8987377b4f681165371dd6693eefeb49d6e61059c8360000151610617565b6105a98460200151610617565b6040808601516060870151608088015192516105fa9695949390602001958652602086019490945260408501929092526001600160a01b03908116606085015216608083015260a082015260c00190565b604051602081830303815290604052805190602001209050919050565b600080825167ffffffffffffffff81111561063457610634610796565b60405190808252806020026020018201604052801561065d578160200160208202803683370190505b50905060005b83518110156106b35761068e84828151811061068157610681610a3d565b60200260200101516106e3565b8282815181106106a0576106a0610a3d565b6020908102919091010152600101610663565b816040516020016106c49190610a92565b6040516020818303038152906040528051906020012092505050919050565b60007ff6f5b2affcb393116906d9ecac596a83d0ad83211486920d42869a0a7df8232b8260000151836020015184604001516040516020016105fa9493929190610ac8565b600060208083528351808285015260005b8181101561075557858101830151858201604001528201610739565b81811115610767576000604083870101525b50601f01601f1916929092016040019392505050565b60006020828403121561078f57600080fd5b5035919050565b634e487b7160e01b600052604160045260246000fd5b6040516060810167ffffffffffffffff811182821017156107cf576107cf610796565b60405290565b604051601f8201601f1916810167ffffffffffffffff811182821017156107fe576107fe610796565b604052919050565b80356001600160a01b038116811461081d57600080fd5b919050565b600082601f83011261083357600080fd5b8135602067ffffffffffffffff82111561084f5761084f610796565b61085d818360051b016107d5565b8281526060928302850182019282820191908785111561087c57600080fd5b8387015b858110156108d85781818a0312156108985760008081fd5b6108a06107ac565b6108a982610806565b815285820135600281106108bd5760008081fd5b81870152604082810135908201528452928401928101610880565b5090979650505050505050565b600060a082840312156108f757600080fd5b60405160a0810167ffffffffffffffff828210818311171561091b5761091b610796565b81604052829350843591508082111561093357600080fd5b61093f86838701610822565b8352602085013591508082111561095557600080fd5b5061096285828601610822565b60208301525061097460408401610806565b604082015261098560608401610806565b6060820152608083013560808201525092915050565b600080600080608085870312156109b157600080fd5b843567ffffffffffffffff8111156109c857600080fd5b6109d4878288016108e5565b945050602085013560ff811681146109eb57600080fd5b93969395505050506040820135916060013590565b600060208284031215610a1257600080fd5b813567ffffffffffffffff811115610a2957600080fd5b610a35848285016108e5565b949350505050565b634e487b7160e01b600052603260045260246000fd5b634e487b7160e01b600052602160045260246000fd5b600060208284031215610a7b57600080fd5b81518015158114610a8b57600080fd5b9392505050565b815160009082906020808601845b83811015610abc57815185529382019390820190600101610aa0565b50929695505050505050565b8481526001600160a01b03841660208201526080810160028410610afc57634e487b7160e01b600052602160045260246000fd5b6040820193909352606001529291505056fea2646970667358221220834af7cc6f228adc8687c1d34ed3a1635f6da8dcb655b1fbbaedad3fb5bc925b64736f6c634300080f0033",
        "linkReferences": {}
    },
    "methodIdentifiers": {
        "DOMAIN_SEPARATOR()": "3644e515",
        "NAME()": "a3f4df7e",
        "VERSION()": "ffa1ad74",
        "acceptOffer(((address,uint8,uint256)[],(address,uint8,uint256)[],address,address,uint256),uint8,bytes32,bytes32)": "aa724a1f",
        "cancelOffer(((address,uint8,uint256)[],(address,uint8,uint256)[],address,address,uint256))": "bdcc3da0",
        "offerUsed(bytes32)": "a8d392b0"
    },
    "id": 19
}